:100000000C948C020C94BD020C94BD020C94BD02A5
:100010000C94BD020C94BD020C94BD020C94BD0264
:100020000C94BD020C94BD020C94BD020C94BD0254
:100030000C94BD020C94BD020C94BD020C94BD0244
:100040000C94BD020C94C92D0C94BD020C94BD02FD
:100050000C94BD020C94BD020C94BD020C94952C22
:100060000C94BD020C94092D0C94DF2C0C94BD0251
:100070000C94BD020C94BD020C94BD020C94BD0204
:100080000C949B2D0C94BD020C94BD020C94BD02EB
:100090000C94BD020C94BD020C94BD020C94F72D7F
:1000A0000C94BD020C94BD020C946D2D0C94BD02F9
:1000B0000C94BD020C94BD020C94BD020C943F2D17
:1000C0000C94BD020C94BD020C94BD020C94BD02B4
:1000D0000C94BD020C94BD020C94BD020C94BD02A4
:1000E0000C94BD0207634236B79BD8A71A396856ED
:1000F00018AEBAAB558C1D3CB7CC5763BD6DEDFD4A
:10010000753EF6177231BF000000803F0800000006
:10011000BE922449123EABAAAA2ABECDCCCC4C3EFC
:1001200000000080BEABAAAAAA3E00000000BF00EB
:100130000000803F0000000000084178D3BB4387E7
:10014000D1133D190E3CC3BD4282AD2B3E68EC82FB
:1001500076BED98FE1A93E4C80EFFFBE01C4FF7F80
:100160003F00000000000C943E080C94CF170C9444
:100170004A170C943E0B0C94D5230C94AC050C94AC
:100180003A1C0C94D4070C94BE0C0C9406080C94E6
:100190000D180C94C0050C94A4050C94E70F0C9456
:1001A000B2050C941B130C94380B0C947F050C9423
:1001B000A60E0C94CC0C0C9415130C941B2F0C94C1
:1001C000E2130C94920F0C94BD0B0C94B4060C9497
:1001D000AE0F0C9405070C9423070C94E3100C94B9
:1001E000CE060C94E61A0C94D81C0C9495180C941A
:1001F00081200C94400B0C9494050C94420B0C94AD
:10020000F6120C94AF0C0C94A8050C949C0B0C9457
:10021000B9100C94D30C0C94E7110C94980C0C941A
:10022000460B0C94B6050C947C0F0C9440180C945F
:10023000DA0C0C94B70C0C94B00E0C948C100C943B
:10024000CD110C9479190C94EC060C94D8060C94EE
:10025000B40E0C945A0C0C94E2060C94C3100C943B
:10026000F50A0C945C1C0C942D070C94D8130C9478
:10027000D2170C9465120C940F070C9489050C94FA
:10028000440B0C94B00F0C94AA060C9454230C94B9
:100290007F1C0C94D30E0C94E4070C948B260C94C6
:1002A000FB060C943C0B0C949C240C94491D0C9460
:1002B0007D0F0C9402110C94C4050C94440C0C9406
:1002C000E61D0C9493060C94BE060C947F180C94B7
:1002D000BF050C94C10A0C9485050C9437170C9437
:1002E000C50C0C94B10E0C94D5070C949E050C947F
:1002F000D00F0C9428170C94A0060C948D050C9428
:100300002D200C94E10C0C9491050C94130B0C947F
:10031000120C0C948A190C943A0B0C9433180C940C
:100320009B060C94A7070C9419070C947E170C9449
:100330004A180C94C6060C94BA050C94F8070C9451
:100340009A050C9411130C94F10B0C9469180C94ED
:100350008B080C94B20E0C94D31D0C94D7110C94F2
:10036000E0100C94E1100C9451170C94B30E0C9403
:10037000E81273656E736F72202564005265706FAA
:100380007274616E646F00706F736963696F6E2061
:10039000256400536572766F2025640053616C6993
:1003A000646120256400706F74656E636961202547
:1003B00064252500646972656363696F6E20256436
:1003C00000696E7665727469646F006672656E614D
:1003D000646F006170616761646F00656E63656E74
:1003E0006469646F002564207061736F730050410D
:1003F000502025640000002100240027002A002D41
:10040000003000330001010000040107010A01006F
:10041000002200250028002B002E003100340002AD
:10042000010000050108010B010000200023002647
:100430000029002C002F00320000010000030106FB
:10044000010901050505050705080808080202025B
:10045000020A0A080804040404010101010101015F
:10046000010303030303030303040707070C0C0C36
:100470000C0C0C0C0C02020202060606060606060E
:10048000060B0B0B0B0B0B0B0B01021020200808AB
:1004900010204010204080020102010804020101E6
:1004A00002040810204080804020100804020180CF
:1004B0000402018040201008040201080402010126
:1004C000020408102040800102040810204080002F
:1004D000000A0B02090C0D0E0807030401000000BE
:1004E000000000000000000000000000000000000C
:1004F00000000000000000000000001211100000C9
:1005000000000000000000000000000000000000EB
:100510000000000000001B2F11241FBECFEFD1E20E
:10052000DEBFCDBF00E00CBF13E0A0E0B2E0EAE721
:10053000FEE700E00BBF02C007900D92A83DB10797
:10054000D9F72BE0A8EDB3E001C01D92A838B2079F
:10055000E1F712E0CCE8D2E000E006C02197010903
:10056000802FFE010E94073ACB38D10780E00807B0
:10057000A9F70E94FE2F0C943B3F0C940000A09121
:10058000E205B091E305ED91FC9111970190F081A6
:10059000E02D682FCD011994282F30E0D901A35DFB
:1005A000B94F9C919F3781F0220F331FF901ED580D
:1005B000F94F118210826C93E0910807F0910907BE
:1005C000309711F070E0199408958091E2059091B0
:1005D000E305DC01ED91FC910190F081E02D60EFED
:1005E00019940F931F93CF93DF93EC0102EE15E064
:1005F000D8018D919C916C2F6F77DC01ED91FC916E
:100600000190F081E02D1995F80180819181CC0F46
:10061000CD2FCC1FDD0B6C2F6F77DC01ED91FC91A2
:100620000190F081E02DDF91CF911F910F911994EE
:100630008091E2059091E305DC01ED91FC91019040
:10064000F081E02D67EF1994CF93DF930E94E502CC
:100650008091E2059091E305DC01ED91FC91019020
:10066000F081E02D69E719958091E2059091E3050D
:10067000A091E505B091E605EC01E881F9810190D2
:10068000F081E02D6C9119958091E2059091E30540
:10069000A091E505B091E605EC01E881F9810190B2
:1006A000F081E02D11966C911995C2E08091E405DE
:1006B000C81760F4E091E505F091E605EC0FF11D37
:1006C000808190E00E94F102CF5FF0CFDF91CF9167
:1006D0000C941803CF93DF93C2EED5E08881998103
:1006E000DC01ED91FC910190F081E02D69EF19950D
:1006F00088819981DC01ED91FC910190F081E02DE0
:1007000062E0199588819981DC01ED91FC9101905D
:10071000F081E02D66E0DF91CF911994E0914107DF
:10072000EE3058F421E02E0F20934107F0E0EE0F59
:10073000FF1FEB5DF84F91838083089581E08093E4
:10074000FF061092E7051092E8051092E905EAEE1F
:10075000F5E0119286E0EA32F807D9F710922A06FE
:1007600010922C0610922B06E0910C07F0910D07C9
:10077000309709F019951092FF060895CF93DF93F3
:1007800090912A06992309F46CC0873F09F058C05C
:1007900010922A068091EA05813761F0893709F0C5
:1007A00041C08091E405882309F458C0DF91CF91BE
:1007B0000C942403E0910E07F0910F07309709F491
:1007C0004DC020912B0630912C06C901019797FD51
:1007D000C90195958795582FC2EED5E0DE0130E02E
:1007E00022961196351770F44F8117964C931797F0
:1007F0002885279522272795240F17962C9317973E
:100800003F5FEECF9927DC01AE51BA4F17968C911E
:100810001797882311F018961C928AEE95E0DF91C5
:10082000CF911994E0911007F09111073097B1F032
:1008300060912B0661504BEE55E0DF91CF911994FA
:1008400020912B0630912C06F901EE51FA4F80874A
:100850002F5F3F4F30932C0620932B06DF91CF91D3
:1008600008959091E705992309F45CC087FD5AC06B
:1008700091509093E705E92FF0E0EE51FA4F808711
:100880009111ECCF8091E805882341F3803D09F474
:100890003FC058F4803919F1E0910407F091050741
:1008A000803CD1F11092E805D9CF843FE9F0853F33
:1008B00011F1E0910007F0910107803E99F7309720
:1008C00089F36091EA0520E8629FC00111246091DC
:1008D000EB05680F792F711D8091E90517C0E09134
:1008E0000207F0910307EBCF6091EA058091EB05D9
:1008F0000E94CC02D7CFE0910A07F0910B076091DC
:10090000EA0570E08091EB05309761F21995CACF46
:10091000E0910607F0910707309721F26091EA0510
:1009200070E0DACF282F30E0803F28F4207F30E0DD
:100930008F708093E905203F310551F1ACF4203CE4
:10094000310521F154F42039310509F087CF82E0D7
:100950008093E7052093E80581CF203D3105B1F074
:10096000203E3105A1F37ACF293F3105C9F034F497
:10097000C901845F9109029750F370CF2F3F310571
:1009800009F06CCFDF91CF910C949E0381E0E0CF12
:1009900081E080932A0610922C0610922B065ECFDF
:1009A000DF91CF910C946A03FF920F931F93CF9323
:1009B000DF93C82F062FF42E152F0E94E502809199
:1009C000E2059091E305DC01ED91FC910190F0814D
:1009D000E02D6C2F1995CF2DD12F0C0F1D2F111D30
:1009E000C017D10729F0899190E00E94F102F8CF59
:1009F000DF91CF911F910F91FF900C941803CF932B
:100A0000DF93EB01A091E205B091E3058F70682FB1
:100A1000606EED91FC9111970190F081E02DCD0178
:100A20001995CE01DF91CF910C94F102CF93DF9312
:100A30002091CE053091CF05C82FD0E0211531058A
:100A400099F48F770E94BF028091CE059091CF05D7
:100A500001969093CF058093CE05CC0FCD2FCC1F60
:100A6000DD0BC093CD051BC0CE0101C0880F2A95B8
:100A7000EAF78F779091CD05892B0E94BF02809174
:100A8000CE059091CF058630910561F4CE01959504
:100A900087950E94BF021092CF051092CE05DF917C
:100AA000CF91089501969093CF058093CE0528E0CD
:100AB00030E0281B390B02C0D595C7952A95E2F77F
:100AC000D0CF8150823108F05AC0E82FF0E088275B
:100AD000E359FA4F8F4F0C94073A8D0591057F0526
:100AE00085058905BF0594059A059E05A405A805F9
:100AF000AC05B205B605BF05BA05C005C4058091B1
:100B000080008F77809380000895809180008F7D92
:100B1000F9CF80918000877FF5CF84B58F7784BD32
:100B2000089584B58F7DFBCF8091B0008F7780933F
:100B3000B00008958091B0008F7DF9CF8091900032
:100B40008F77809390000895809190008F7DF9CFEA
:100B500080919000877FF5CF8091A0008F77809360
:100B6000A00008958091A0008F7DF9CF8091A00012
:100B7000877FF5CF809120018F77809320010895A2
:100B8000809120018F7DF9CF80912001877FF5CF63
:100B9000CF93DF93282F30E0F901E153FB4F84918D
:100BA000F901E757FB4FD491F901ED5BFB4FC4917D
:100BB000CC23A1F081110E946105EC2FF0E0EE0F33
:100BC000FF1FE75DFB4FA591B491EC91ED2381E010
:100BD00090E009F480E0DF91CF91089580E090E00B
:100BE000FACF1F93CF93DF93282F30E0F901E15321
:100BF000FB4F8491F901E757FB4FD491F901ED5B6D
:100C0000FB4FC491CC23A9F0162F81110E946105DE
:100C1000EC2FF0E0EE0FFF1FE15FFB4FA591B491C9
:100C20008FB7F894EC91111108C0D095DE23DC93B6
:100C30008FBFDF91CF911F910895DE2BF8CFCF9317
:100C4000DF9390E0FC01E757FB4F24918D5B9B4FB6
:100C5000FC0184918823C9F090E0880F991FFC0162
:100C6000EB50FC4FA591B491FC01E15FFB4FC591A6
:100C7000D49161110DC09FB7F8948C912095822377
:100C80008C938881282328839FBFDF91CF9108957B
:100C9000623051F49FB7F8943C91822F8095832362
:100CA0008C93E8812E2BEFCF8FB7F894EC912E2BFD
:100CB0002C938FBFEACF1F93CF93DF93182FEB01B5
:100CC00061E00E941F06209739F460E0812FDF91D8
:100CD000CF911F910C94F105CF3FD10511F461E044
:100CE000F5CFE12FF0E0E153FB4FE491E150E23129
:100CF00008F0B3C0F0E08827EF57F94F8F4F0C94FE
:100D0000073A93069B06A006AA06B4062D07BE0660
:100D1000C606CE06D806E206EC06FB0605072D073A
:100D20000F071907230784B5806884BDC7BDDF910D
:100D3000CF911F91089584B5806284BDC8BDF7CF5F
:100D400080918000806880938000D0938900C09358
:100D50008800EDCF80918000806280938000D093E6
:100D60008B00C0938A00E3CF8091800088608093DD
:100D70008000D0938D00C0938C00D9CF8091B000BB
:100D800080688093B000C093B300D1CF8091B00051
:100D900080628093B000C093B400C9CF809190006E
:100DA000806880939000D0939900C0939800BFCF43
:100DB00080919000806280939000D0939B00C093BC
:100DC0009A00B5CF80919000886080939000D09376
:100DD0009D00C0939C00ABCF8091A0008068809361
:100DE000A0008091A0008F7B8093A000D093A900E9
:100DF000C093A8009CCF8091A00080628093A00047
:100E0000D093AB00C093AA0092CF8091A0008860DD
:100E10008093A000D093AD00C093AC0088CF8091A8
:100E20002001806880932001D0932901C09328017C
:100E30007ECF80912001806280932001D0932B018E
:100E4000C0932A0174CF8091200188608093200193
:100E5000D0932D01C0932C016ACFC038D1050CF07E
:100E60003ECF33CF863308F0865320917B00982FF6
:100E70009870277F922B90937B008770806480937B
:100E80007C0080917A00806480937A0080917A005F
:100E900086FDFCCF809178009091790008953FB74E
:100EA000F8948091DC049091DD04A091DE04B0916F
:100EB000DF0426B5A89B05C02F3F19F00196A11DA0
:100EC000B11D3FBFBA2FA92F982F8827BC01CD0194
:100ED000620F711D811D911D42E0660F771F881FF3
:100EE000991F4A95D1F708958F929F92AF92BF9222
:100EF000CF92DF92EF92FF926B017C010E944F072D
:100F00004B015C01C114D104E104F104B9F00E9469
:100F10004F07681979098A099B09683E7340810562
:100F2000910580F321E0C21AD108E108F10888EEAA
:100F3000880E83E0981EA11CB11CE4CFFF90EF90B7
:100F4000DF90CF90BF90AF909F908F900895AF9219
:100F5000BF92CF92DF92EF92FF920F931F93CF93A6
:100F6000DF936C017B018B01040F151FEB015E0108
:100F7000AE18BF08C017D10759F06991D601ED919D
:100F8000FC910190F081E02DC6011995892B79F72C
:100F9000C501DF91CF911F910F91FF90EF90DF90EE
:100FA000CF90BF90AF9008950895FC01538D448D6C
:100FB000252F30E0842F90E0821B930B541710F004
:100FC000CF96089501970895FC01918D828D981711
:100FD00061F0A28DAE0FBF2FB11D5D968C91928DE9
:100FE0009F5F9F73928F90E008958FEF9FEF08951A
:100FF000FC01918D828D981731F0828DE80FF11DE3
:10100000858D90E008958FEF9FEF0895FC01918DFD
:10101000228D892F90E0805C9F4F821B91098F73F6
:101020009927089580E395E00E94060821E0892B26
:1010300009F420E0822F0895FC01A48DA80FB92F98
:10104000B11DA35ABF4F2C91848D90E001968F73F0
:101050009927848FA689B7892C93A089B1898C910F
:10106000837080648C93938D848D981306C002885E
:10107000F389E02D80818F7D80830895EF92FF9228
:101080000F931F93CF93DF93EC0181E0888F9B8DAB
:101090008C8D98131AC0E889F989808185FF15C065
:1010A0009FB7F894EE89FF896083E889F989808188
:1010B0008370806480839FBF81E090E0DF91CF9157
:1010C0001F910F91FF90EF900895F62E0B8D10E079
:1010D0000F5F1F4F0F731127E02E8C8D8E110CC0E8
:1010E0000FB607FCFACFE889F989808185FFF5CF33
:1010F000CE010E941C08F1CFEB8DEC0FFD2FF11DEE
:10110000E35AFF4FF0829FB7F8940B8FEA89FB896F
:1011100080818062CFCFCF93DF93EC01888D8823CD
:10112000B9F0AA89BB89E889F9898C9185FD03C04A
:10113000808186FD0DC00FB607FCF7CF8C9185FF2F
:10114000F2CF808185FFEDCFCE010E941C08E9CF50
:10115000DF91CF91089580E090E0892B29F00E94E3
:10116000120881110E94000080E090E0892B49F074
:1011700080E090E0892B29F00E94000081110E94FC
:10118000000080E090E0892B49F080E090E0892B1E
:1011900029F00E94000081110E94000080E090E090
:1011A000892B49F080E090E0892B29F00E94000013
:1011B00081110C9400000895CF9380EF0E94BF022C
:1011C0008AE60E94BF02CAEC8C2FC03108F08FE77C
:1011D0000E94BF02CF5FC031B9F787EF0E94BF0204
:1011E00081E0CF910895DC012C911196ED91FC9155
:1011F000F8948181822B81839281322F30959323C1
:10120000928387E090E00197F1F7818183238183C6
:1012100083E290E00197F1F790817894EFECF0E0B1
:101220003197F1F7922381E009F480E00895FC0101
:1012300090810180F281E02D292F209560FF14C05C
:10124000F8948281822382838181892B8183A3E226
:10125000B0E01197F1F78281982B9283789487ED13
:1012600090E00197F1F70895F894828182238283B8
:101270008181892B8183AFEFB0E01197F1F78281F3
:10128000982B928378948FE090E0EBCFDF92EF92EF
:10129000FF920F931F93CF93DF93EC01D62EE42E92
:1012A00008E010E0FF24F39461E08D2D8F2109F414
:1012B00060E0CE010E941709FF0C01501109A1F74F
:1012C000E11010C0F894E981FA81918188818095BC
:1012D00089238183E981FA8192818881809589239C
:1012E00082837894DF91CF911F910F91FF90EF90BF
:1012F000DF900895FC0190810180F281E02DF89447
:101300008181292F20958223818378943DE743E0D2
:1013100050E0315029F1DA011197F1F780818923EA
:10132000C1F3F8948281822382838181892B818316
:101330007894ABE7B7E01197F1F7F89481818223B5
:101340008183A3E1B1E01197F1F78081982381E0D7
:1013500009F080E07894E3E6F6E03197F1F708953C
:1013600080E00895BF92CF92DF92EF92FF920F93A9
:101370001F93CF93DF93EC01B62EC72E142FED846D
:10138000E11004C00E947A0981110EC01B861D86DF
:101390001C8680E0DF91CF911F910F91FF90EF901D
:1013A000DF90CF90BF90089540E060EF111101C031
:1013B0006CEECE010E944609D12C01E011E0CE0175
:1013C0000E94F308F82ECE010E94F30891E0F91272
:1013D00018C0813099F51134C8F2EB86E11002C0D3
:1013E00081E08D878B81882389F22396EB2DFC2D5C
:1013F000CF01089629912193E817F907D9F781E0E1
:10140000C9CFED2DF0E0F8120FC08B851817A0F4AE
:10141000DE01AE0FBF1F13968C91802379F4F12C5F
:10142000193008F41C87E12EEC0FFD1F8381902FEB
:101430009095892383830AC08113F1CFFE01ED0DBE
:10144000F11D8381802B8383FF24F3946F2DCE01C4
:101450000E9417091F5F000F11F4D39401E087E089
:101460008D1508F0ACCFB7CF1F93CF93DF93EC016E
:10147000162F60E0812F0E941F06612F70E0FB0194
:10148000E757FB4FE491E883FB01ED5BFB4FE491F1
:10149000F0E0EE0FFF1FE75DFB4F859194919A837B
:1014A00089831B861D861C861A86198618861F82CC
:1014B0001E821D821C821B82DF91CF911F91089595
:1014C000CF93DF93EC016A8170E08B810E945B0611
:1014D00069818C810E94F10561E08981811160E060
:1014E0008D810E94F10581E08883DF91CF9108957D
:1014F000CF92DF92EF92FF92CF93DF93EC010E94A5
:101500004F076B017C0188A599A5AAA5BBA5B701CA
:10151000A601481B590B6A0B7B0B8CA19DA1AEA1A8
:10152000BFA1481759076A077B0748F18C859D853D
:10153000AE85BF852A812223F1F00196A11DB11D40
:101540008C879D87AE87BF874C855D856E857F853F
:10155000E881F9810680F781E02DCE011995C8A6B2
:10156000D9A6EAA6FBA681E0DF91CF91FF90EF908C
:10157000DF90CF9008950197A109B109E1CF80E0F4
:10158000F3CFCF93DF93FC012381222359F1EC01A8
:1015900061E084810E941F0661E08D810E941F0628
:1015A0008B81843011F08830B1F461E08E810E942B
:1015B0001F0661E08F810E941F068FA58F3F91F06B
:1015C00061E00E941F066EA581E068278FA5DF916C
:1015D000CF910C94F105833011F0863071F761E002
:1015E0008E81E9CFDF91CF910895CF93DF93FC01F6
:1015F00023812223A9F0EC010190F081E02D0480E9
:10160000F581E02D60E019958FA58F3F49F061E0ED
:101610000E941F066EA58FA5DF91CF910C94F10556
:10162000DF91CF910895DC01ED91FC911197248118
:101630003581477055276627772741505109610941
:101640007109473051056105710570F4FA01882769
:10165000E35DF44F8F4F0C94073A380B3A0B3C0B79
:101660003E0B400B420B440B61E0CD01F901199494
:1016700065E0FBCF64E0F9CF66E0F7CF62E0F5CF3D
:101680006AE0F3CF68E0F1CF69E0EFCFCF93DF936B
:10169000EC01CB01BA0126E030E040E050E00E94CE
:1016A0008439623071058105910589F16CF4611509
:1016B000710581059105D1F06130710581059105B4
:1016C000F9F0DF91CF91089564307105810591059E
:1016D00061F124F1653071058105910591F7E8818B
:1016E000F9810480F581E02D66E006C0E881F9818A
:1016F0000480F581E02D64E0CE01DF91CF91199453
:10170000E881F9810480F581E02D65E0F5CFE8817D
:10171000F9810480F581E02D61E0EECFE881F98167
:101720000480F581E02D63E0E7CFE881F981048052
:10173000F581E02D62E0E0CFDC01ED91FC910480C9
:10174000F581E02D437055276627772742305105F4
:101750006105710571F0433051056105710559F05E
:10176000413051056105710511F065E0199466E09D
:10177000FDCF6AE0FBCF69E0F9CFCF93DF93EC01B7
:10178000CB01BA0123E030E040E050E00E94843910
:10179000613071058105910599F06230710581050F
:1017A0009105A9F0672B682B692BC1F4E881F981B9
:1017B0000480F581E02D64E0CE01DF91CF91199492
:1017C000E881F9810480F581E02D61E0F5CFE881C1
:1017D000F9810480F581E02D62E0EECFDF91CF91B9
:1017E0000895DC01ED91FC910480F581E02D4370BA
:1017F000552766277727423051056105710571F03D
:10180000433051056105710559F0413051056105BD
:10181000710511F062E0199463E0FDCF61E0FBCF48
:1018200060E0F9CFCF93DF93EC01E881F981048088
:10183000F581E02D8A8160E0811162E0CE01199589
:10184000E881F9810480F581E02D8A8161E08111D0
:1018500063E0CE0119958CA59DA58230910538F0E5
:10186000880F991F880F991F05970197F1F7E88155
:10187000F9810480F581E02D8A8160E0811162E0C8
:10188000CE01DF91CF911994CF93DF93EC0120E04B
:1018900030E0A9016C897D898E899F890E943F3B38
:1018A00018162CF4E8A9F9A9DF91CF911994EAA9A7
:1018B000FBA9FACFCF92DF92EF92FF920F931F9383
:1018C000CF93DF93DC011396CC91C43039F0C8304C
:1018D00059F1C33019F0C63049F1C2E08C010C5FF8
:1018E0001F4FF12CE12CC62ED12CD1E0F8016481E0
:1018F000C6010E2C02C0959587950A94E2F780FDEB
:101900006D270F5F1F4F80810E94F105BFEFEB1A1B
:10191000FB0AEC1658F3DF91CF911F910F91FF90C6
:10192000EF90DF90CF900895C4E0D8CFC3E0D6CF3A
:10193000DC011396EC911397E93008F042C0F0E017
:101940008827EA55F34F8F4F0C94073AAF0CB70C2A
:10195000BE0CC50CCC0CE10CD30CE10CDA0CED91F7
:10196000FC9111970084F185E02DCD011994ED9142
:10197000FC9111970284F385E02DF7CFED91FC9156
:1019800011970484F585E02DF0CFED91FC9111972E
:101990000684F785E02DE9CFED91FC911197008841
:1019A000F189E02DE2CFED91FC9111970288F38946
:1019B000E02DDBCFED91FC9111970488F589E02DA6
:1019C000D4CF08954F925F926F927F928F929F92A1
:1019D000AF92BF92CF92DF92EF92FF920F931F933D
:1019E000CF93DF93EC01C888D988EA88FB888C857F
:1019F0009D85AE85BF85C81AD90AEA0AFB0A6C899B
:101A00007D898E899F899B01AC010E94C6384B015C
:101A10005C016C8D7D8D8E8D9F8D9B01AC010E9434
:101A20002B3A9B01AC01C501B4010E94973A0E9478
:101A3000093BC114D104E104F10409F0B1C06230E2
:101A40007105810591050CF0CBC01CA21DA21EA240
:101A50001FA21C8A1D8A1E8A1F8A1CAA1DAA1EAAD2
:101A60001FAADF91CF911F910F91FF90EF90DF9010
:101A7000CF90BF90AF909F908F907F906F905F902E
:101A80004F9008951016110612061306B4F46C1543
:101A90007D058E059F051CF42A812111A1C09B01A3
:101AA000AC0188279927DC01821B930BA40BB50B93
:101AB0008CAB9DABAEABBFAB93C00115110521053F
:101AC000310509F48DC06C157D058E059F050CF060
:101AD00087C08A81882309F483C0309520951095AA
:101AE00001951F4F2F4F3F4F0CAB1DAB2EAB3FABA4
:101AF00077C0011511052105310509F471C088244D
:101B0000992454018C189D08AE08BF086815790502
:101B10008A059B050CF064C08A81811161C0DDCF0C
:101B2000CCACDDACEEACFFACA7019601C701B601B1
:101B30000E942B3A2B013C01C501B4010E94673879
:101B400020E030E040E850E40E94C63820E030E079
:101B500040E85FE30E942B3A9B01AC01C301B20154
:101B60000E94973A9B01AC01C701B6010E942A3A34
:101B70003B016C01FE01E05CFF4FE080F1800281DF
:101B800013819701A8010E943F3B181614F47301BA
:101B90008601C701D8018CAF9DAFAEAFBFAF3AC0D1
:101BA0000CA91DA92EA93FA91C141D041E041F0465
:101BB0000CF468CF10161106120613060CF099CF1C
:101BC0000027112798010C191D092E093F096017DC
:101BD0007107820793070CF062CF2A8121115FCF32
:101BE0008CA89DA8AEA8BFA881149104A104B1043B
:101BF00009F096CF88AD99ADAAADBBAD8CAF9DAFC6
:101C0000AEAFBFAF81E01C141D041E041F040CF016
:101C100080E08A833FEF831A930AA30AB30A8CAA4F
:101C20009DAAAEAABFAACCACDDACEEACFFACC7019E
:101C3000B6010E94103B6CA37DA38EA39FA3A701B6
:101C4000960160E074E284E799E40E94973A6C8B15
:101C50007D8B8E8B9F8B2A81211103CF90586C8BAB
:101C60007D8B8E8B9F8BFDCECF92DF92EF92FF927A
:101C70000F931F93CF93DF93EC016A017B0120E068
:101C800030E0A901CB01B6010E94603887FF04C093
:101C9000F7FAF094F7F8F094A7019601688D798D22
:101CA0008A8D9B8D0E946038882309F446C0C88EB7
:101CB000D98EEA8EFB8E8E01005C1F4FA701960124
:101CC00060E074E284E799E40E94973AF801608347
:101CD0007183828393838CA99DA9AEA9BFA918168D
:101CE00019061A061B064CF56C897D898E899F8919
:101CF0009B01AC010E94C6386B017C016C8D7D8D0F
:101D00008E8D9F8D9B01AC010E942B3A9B01AC01F3
:101D1000C701B6010E94973A0E94093B6CAB7DABAC
:101D20008EAB9FABCE01DF91CF911F910F91FF90B2
:101D3000EF90DF90CF900C94E20CDF91CF911F9148
:101D40000F91FF90EF90DF90CF9008956250643430
:101D500030F487E00E94BF0281E00C94BF02089536
:101D60000895089508950895CF93C62F41305105E1
:101D700079F48EEF860F8434A0F460E08C2F0E94FB
:101D8000F10561E08C2F0E941F0681E0CF9108953C
:101D90004330510531F48EEF860F843410F463E044
:101DA000F1CF80E0F3CF0F931F93CF93DF93C4E184
:101DB000D2E084EF0E94BE0389910E94BE0380E0BE
:101DC0000E94BE0382E0CA31D80799F7CAE1D2E087
:101DD00010E080EF0E94BE0382E00E94BE0380E01C
:101DE0000E94BE03812F0E94BE0388810E94BE0311
:101DF00089810E94BE038A810E94BE0387EF0E94F0
:101E0000BE031F5F2396183021F702E312E0C0E003
:101E100080EF0E94BE0382E60E94BE0380E00E9423
:101E2000BE038C2F0E94BE0383E10E94BE03F80113
:101E300080810E94BE03F80181810E94BE03F801E7
:101E400082810E94BE03F80183810E94BE0387EF56
:101E50000E94BE0380EF0E94BE0382E60E94BE0382
:101E600084E00E94BE038C2F0E94BE0380E00E948B
:101E7000BE0387EF0E94BE0380EF0E94BE0382E68E
:101E80000E94BE0389E00E94BE038C2F0E94BE0305
:101E900081E00E94BE0380E00E94BE0380E00E94B9
:101EA000BE0384E30E94BE0387EF0E94BE03CF5FA0
:101EB0000C5F1F4FC33009F0ABCF0EE312E0C0E060
:101EC00080EF0E94BE0384E00E94BE0381E00E9476
:101ED000BE038C2F0E94BE03F80181918F010E94E6
:101EE000BE0387EF0E94BE03CF5FC33049F7DF9187
:101EF000CF911F910F91089508952FB7F8944091B5
:101F0000D8045091D9046091DA047091DB042FBF9A
:101F1000FC01468357836087718723E130E0338774
:101F2000228708956A37C1F44230B0F0F901418147
:101F3000F0E84F9FA0011124F9012081240F352FD3
:101F4000311D2115310529F0FC013387228781E0FD
:101F5000089521E030E0F8CF80E0089580E0089512
:101F60000F931F93CF938C01C0E0D8015E968C91A4
:101F7000C81790F4EC2FF0E03196EE0FFF1FE00F42
:101F8000F11F80819181DC01ED91FC910680F78148
:101F9000E02D1995CF5FE9CFCF911F910F91089553
:101FA000CF93C0E08AEC8C0F62E0803128F08EEF96
:101FB0008C0F843420F461E08C2F0E94CC02CF5F20
:101FC000C63481F783E297E0CF910C94B00FDF9293
:101FD000EF92FF920F931F93CF93DF93EC01E62EC6
:101FE000D42E89018BE6681709F44CC0ADE66A135C
:101FF00076C0442309F48EC0F901C081C63408F0CC
:1020000089C080EF0E94BF028EE60E94BF028C2F23
:102010000E94BF02D0E0FE01E35DF94F80810E9483
:10202000BF02CC0FDD1FCD58D94F0990D881C02DEC
:102030008C2F8F770E94BF02CE018078892B41F0D0
:10204000CE01880F892F881F990B8F770E94BF02BE
:10205000CE018827907C892B49F0CE01990F880BFF
:10206000990F982F881F8F770E94BF0287EF0E94D9
:10207000BF0281E0DF91CF911F910F91FF90EF9010
:10208000DF90089580EF0E94BF028CE60E94BF029D
:102090000DE216E0F12CD8018D918D018F37B9F04A
:1020A000E12C8E8DE81698F4EE2DF0E03196EE0FCF
:1020B000FF1FEC0FFD1F80819181DC01ED91FC91F0
:1020C0000190F081E02D6F2D1995E394EACF8FE711
:1020D0000E94BF02F394B6E4FB12DDCFC7CFF12C10
:1020E0008E8DF816B8F4EF2DF0E03196EE0FFF1F4D
:1020F000EC0FFD1F80819181DC01ED91FC9104804A
:10210000F581E02D98014D2D6E2D19958111B2CFDD
:10211000F394E6CF80E0AECFDF92EF92FF920F9381
:102120001F93CF93DF93EC01D62E8A01F12CE12C83
:102130008E8DF816A8F4EF2DF0E03196EE0FFF1F0C
:10214000EC0FFD1F80819181DC01ED91FC910280FB
:10215000F381E02DA8016D2D1995E82AF394E8CFBD
:102160008E2DDF91CF911F910F91FF90EF90DF9017
:1021700008956250643430F481E00E94BF0281E02F
:102180000C94BF020895CF938EEF860F8434B0F481
:102190004130510599F4E62FF0E0E35DF94F80817D
:1021A0008F3761F0C62F60E08C2F0E94F10561E04F
:1021B0008C2F0E941F0681E0CF91089580E0FCCF14
:1021C000089580E008950F931F93CF93DF939EEFC0
:1021D000980F943490F4C82FD0E0FE01E35DF94FDE
:1021E0009081913051F4072F162F0E94F105CC0FEA
:1021F000DD1FCD58D94F18830983DF91CF911F91EF
:102200000F9108954F925F926F927F928F929F925B
:10221000AF92BF92CF92DF92EF92FF920F931F93F4
:10222000CF93DF93893008F0A7C08F5FC82FCC0F02
:10223000CC0FCC0F4C2EC73410F056E4452ED62FC1
:1022400038EF532E5C0E852C912CC401880F991FFA
:102250009C012E513A4F5901052DD12CC12C10E073
:10226000772473940415C8F58EEF800F8434F8F446
:10227000F601E80DF91DE35DF94F90819230B8F455
:10228000872D8D2366246394811101C0612C760112
:10229000EE0CFF1C913089F4172931E9E30EF11C93
:1022A000F501EE0DFF1D862D90E091838083770C64
:1022B0000F5F8FEFC81AD80AD5CF882371F3F701C3
:1022C000EF56FF4FEA0DFB1D80819181019729F3A5
:1022D00062E0802F0E941F06E0CF10FF05C06D2F27
:1022E0006170852D0E94F10511FF06C06D2F62708F
:1022F00089EF8C0F0E94F10512FF06C06D2F6470EC
:102300008AEF8C0F0E94F10513FF06C06D2F6870D5
:102310008BEF8C0F0E94F10514FF06C06D2F6071CA
:102320008CEF8C0F0E94F10515FF06C06D2F6072B7
:102330008DEF8C0F0E94F10516FF06C06D2F6074A3
:102340008EEF8C0F0E94F10517FF16C06D2F60787D
:102350008FEF8C0FDF91CF911F910F91FF90EF9036
:10236000DF90CF90BF90AF909F908F907F906F90B5
:102370005F904F900C94F105DF91CF911F910F91D9
:10238000FF90EF90DF90CF90BF90AF909F908F9095
:102390007F906F905F904F900895FC0132960B965E
:1023A0001192118A1086E817F907D1F70895625043
:1023B000643460F480E00E94BF0281E00E94BF02AA
:1023C0008BE00E94BF0281E00C94BF020895CF937E
:1023D0002EEF260F2434A0F5E62FE695E695E69538
:1023E000E80FF92FF11D8489962F977021E030E0D6
:1023F00001C0220F9A95EAF74115510519F04B30AB
:102400005105D9F4C62F282B248B452B39F460E0D5
:102410008C2F0E941F0681E0CF91089562E08C2FDF
:102420000E941F06EC2FF0E0EE0FFF1FED58F94F52
:1024300081E090E091838083EFCF20952823248B47
:1024400080E0EACF0F931F93CF938C01060F111DED
:10245000D80154968C915497C42FC823211104C0DD
:102460001B968C918C1769F18091E2059091E305A0
:102470006F706069DC01ED91FC910190F081E02DBD
:1024800019958091E2059091E3056C2F6F77DC013F
:10249000ED91FC910190F081E02D19958091E2057C
:1024A0009091E3056C2F70E0660F672F661F770B26
:1024B000DC01ED91FC910190F081E02D1995F8017E
:1024C000C387CF911F910F910895EF92FF920F93C1
:1024D0001F93CF93DF93893008F073C0E090150706
:1024E000F0901607F701E80FF11D6283672B09F4DE
:1024F00068C0082F1489D82FDD0FDD0FDD0F8EEF98
:102500008D0F843450F4C12FC17010FF07C08D2F80
:102510000E94C805C1E0892B09F4C0E08FEF8D0F40
:10252000843448F411FF07C081E08D0F0E94C80574
:10253000892B09F0C26012FF07C082E08D0F0E9454
:10254000C805892B09F0C46013FF07C083E08D0F15
:102550000E94C805892B09F0C86014FF07C084E0F9
:102560008D0F0E94C805892B09F0C06115FF07C0B7
:1025700085E08D0F0E94C805892B09F0C062D03418
:10258000A1F016FF07C086E08D0F0E94C805892BB9
:1025900009F0C064DF3349F017FF07C087E08D0FF3
:1025A0000E94C805892B09F0C06821E04C2F602FDC
:1025B000C701DF91CF911F910F91FF90EF900C9485
:1025C0002212DF91CF911F910F91FF90EF9008950C
:1025D0008EEF860F8C3018F06C52633030F483E04D
:1025E0000E94BF0288E00C94BF020895CF9343304D
:1025F0005105A9F48EEF860F8C3020F084ED860F04
:10260000833068F4C62F61E08C2F0E941F0670E0B3
:1026100060E08C2F0E945B0681E0CF91089580E0FE
:10262000FCCFFC01158214820895693611F40C94D4
:10263000DC0880E008956653603130F482E00E9447
:10264000BF028AE00C94BF020895CF93C82F80EF99
:102650000E94BF0282E60E94BF0284E20E94BF0283
:102660008C2F0E94BF0287EFCF910C94BF024F9234
:102670005F926F927F92BF92CF92DF92EF92FF9222
:102680000F931F93CF93DF93C62FD0E0CC0FDD1FA6
:10269000C80FD91FEA81FB81309709F47BC00485FC
:1026A00015852685378580E037FF08C03095209551
:1026B000109501951F4F2F4F3F4F81E0B02EE894AA
:1026C000B7F86801790197E0F594E794D794C79437
:1026D0009A95D1F7DC2CE894D7F8280139015EE00F
:1026E00075946794579447945A95D1F7E42CE894DD
:1026F000E7F82801390175E1759467945794479478
:102700007A95D1F7E89447F8ECE135952795179538
:102710000795EA95D1F70F7781110860C42E162F1F
:1027200080EF0E94BF0282E60E94BF02CC2071F1BE
:102730008AE00E94BF028A819B81DC01ED91FC91BD
:102740000190F081E02D1995812F0E94BF028B2D01
:102750000E94BF028D2D0E94BF028E2D0E94BF02DB
:10276000842D0E94BF02802F0E94BF0287EFDF915D
:10277000CF911F910F91FF90EF90DF90CF90BF907E
:102780007F906F905F904F900C94BF0286E00E9404
:10279000BF02DACFDF91CF911F910F91FF90EF90A1
:1027A000DF90CF90BF907F906F905F904F90089593
:1027B0006250643430F488E00E94BF0285E10C94DA
:1027C000BF0208954830510551F48EEF860F8434CE
:1027D00030F4862F61E00E941F0681E0089580E0BA
:1027E0000895CF92DF92EF92FF92CF93DF93EC01A7
:1027F000603282E07807CCF5653B710514F064EB3C
:1028000070E0898128E830E0281B310987FD339585
:10281000220F331F220F331F6901330FEE08FF0809
:102820008A8128E532E0281B310987FD3395220F84
:10283000331F220F331F032E000C440B550B2C1992
:102840003D094E095F09DB0177FF02C0B0E0A0E05F
:102850000E94AE3924EB30E040E050E00E94843921
:10286000C20ED31EE41EF51EB601E881E03370F5FA
:10287000298188E890E0821B910927FD9395880FB4
:10288000991F880F991F681779077CF02A8188E5BE
:1028900092E0821B910927FD9395880F991F880F5D
:1028A000991F681779070CF4CB010297880F991FBD
:1028B0004FB7F8942E2F30E0F901EE0FFF1FE20F13
:1028C000F31FEF5BFB4F928381834FBFDF91CF916B
:1028D000FF90EF90DF90CF900895DF92EF92FF92FC
:1028E0000F931F93CF93DF93EC01D62E7A018901CA
:1028F0008881803308F067C061E08D2D0E941F063B
:102900008881282F30E0F901EE0FFF1FE20FF31F3F
:10291000EF5BFB4F9D2D9F736081607C692B608313
:1029200020E232E02E193F0937FF02C02D5F3F4FF2
:102930003595279535952795298320E639E0201B85
:10294000310B37FF02C02D5F3F4F359527953595E9
:1029500027952A832CE0622F0E94E739829FB001DD
:10296000112430E020E0AB01420F531FFA01EE0FBB
:10297000FF1FE40FF51FEF5BFB4F908196FD16C024
:102980002F5F3F4F2C30310571F7813029F51092C0
:10299000800082E080938100109285001092840074
:1029A000B19A80916F00826080936F00E8818E2FD2
:1029B00090E0FC01EE0FFF1FE80FF91FEF5BFB4FEC
:1029C0008081806480838881DF91CF911F910F91F6
:1029D000FF90EF90DF900895823061F410929000A4
:1029E00080939100109295001092940088BB809380
:1029F0007100DCCF833069F41092A00082E08093F4
:102A0000A1001092A5001092A40089BB80937200CF
:102A1000CDCF8111CBCF1092200182E08093210194
:102A200010922501109224018ABB80937300BECFBF
:102A3000AF92BF92CF92DF92EF92FF920F931F93CC
:102A4000CF93DF936B017A01EC01C35CDB4F2881EC
:102A50003CE0389F8001399F100D1124A0903C0468
:102A6000B12C27FF1FC0FB011182108288818F5F6C
:102A7000888388819801280F311D87FD3A95F601DA
:102A80002A153B051CF488818C30C4F1808191812A
:102A9000049680349C4908F473C0F60180819181CA
:102AA000049670C088819801280F311D87FD3A95E2
:102AB0002A153B05DCF68881A801480F511D87FDCA
:102AC0005A95FA01EE0FFF1FE40FF51FEF5BFB4F66
:102AD000808186FFCBCF8881F801E80FF11D87FD4B
:102AE000FA95CF01EE0FFF1FE80FF91FEF5BFB4FC9
:102AF000808160E08F730E94F105B8CF8081918161
:102B00002881A801420F511D27FD5A959A01FA010B
:102B1000EE0FFF1FE20FF31FEF5BFB4F21813281AE
:102B2000820F931FF7019183808388819801280F7A
:102B3000311D87FD3A95F901EE0FFF1FE20FF31FDC
:102B4000EF5BFB4F808186FF22C08881080F111D3B
:102B500087FD1A95F801EE0FFF1FE00FF11FEF5BE5
:102B6000FB4F808161E08F73DF91CF911F910F91B7
:102B7000FF90EF90DF90CF90BF90AF900C94F10555
:102B800080E49CE9F701918380838FEF8883DF9154
:102B9000CF911F910F91FF90EF90DF90CF90BF905A
:102BA000AF90089520911904260F3327331F213247
:102BB0003105ECF420910605FC0190E080E0243022
:102BC00069F082E00895A09119042191AC01475069
:102BD0005C4FA40FB52FB11D2C930196861798F367
:102BE00080911904680F6093190480E0089581E0D2
:102BF00008951092060581E0809305051092E00487
:102C000061E084E10E94F10561E085E10E94F10547
:102C1000E9EBF0E080818E7F808380818D7F8083EF
:102C200088E48093B80085E48093BC000895CF9336
:102C3000DF9391E09093F8038823B9F0C091B80036
:102C4000D091BA008091BC008A7B8093BC0060E088
:102C500084E10E94F10560E085E10E94F1050E9497
:102C6000F915D093BA00C093B800DF91CF910895C1
:102C70008F929F92AF92BF92CF92DF92EF92FF928C
:102C80000F931F93CF93DF93D0912F05D13208F08C
:102C9000D7C0182FC0912E050E944F076B017C01F1
:102CA0008091060581116BC082E080930605109328
:102CB00005058FEF8093040510920305D09302055C
:102CC000AEE0B5E0E2EEF4E080E0D81391C01092FF
:102CD000E1048091E104CC0FC82BC093E104809102
:102CE000E004813009F088C01092E0040E944F0790
:102CF0006B017C018091E1048093BB008091080509
:102D000090910905A0910A05B0910B05892B8A2B9A
:102D10008B2BA1F00E944F07009108051091090527
:102D200020910A0530910B056C197D098E099F09C8
:102D3000061717072807390708F442C08091BC001E
:102D400083FDD8CF85EC8093BC000E944F076B01B8
:102D50007C0180910605823009F450C08091040501
:102D60008F3F09F46FC080910405803209F46CC074
:102D700080910405803309F469C084E026C0809105
:102D8000080590910905A0910A05B0910B05892BC2
:102D90008A2B8B2B09F484CF0E944F078090080563
:102DA00090900905A0900A05B0900B056C197D095B
:102DB0008E099F0986169706A806B90608F070CFF7
:102DC000809107050E94171685E010920D0510925C
:102DD0002F0510920C05DF91CF911F910F91FF905D
:102DE000EF90DF90CF90BF90AF909F908F9008951D
:102DF0009D9191938F5F69CF85EEA5CF8091080556
:102E000090910905A0910A05B0910B05892B8A2B99
:102E10008B2B09F49ECF0E944F070091080510915B
:102E2000090520910A0530910B056C197D098E0961
:102E30009F09061717072807390708F08ACFC0CF60
:102E400081E0C3CF80E0C1CF82E0BFCF83E0BDCFC0
:102E5000E091D6048091D504E81730F4F0E0E85210
:102E6000FC4F808190E008958FEF9FEF089590913F
:102E7000D6048091D5042FEF3FEF981748F4E92F3F
:102E8000F0E0E852FC4F208130E09F5F9093D60441
:102E9000C90108958091D5049091D604891B990B9E
:102EA0000895CF92DF92EF92FF920F931F93CF93EB
:102EB000DF937C01CB018A0120910C05222389F04C
:102EC000EB016B01C40ED51ECC15DD0569F06991CF
:102ED000D701ED91FC910190F081E02DC70119958A
:102EE000F3CF642F0E94D215C801DF91CF911F91BB
:102EF0000F91FF90EF90DF90CF900895CF93DF93E5
:102F00001F92CDB7DEB7698320910C052223F9F01B
:102F100020912F05203258F021E030E0FC0133836E
:102F2000228390E080E00F90DF91CF91089580910F
:102F30000D05E82FF0E0E25FFA4F998190838F5FF3
:102F400080930D0580932F0581E090E0ECCF61E048
:102F5000CE0101960E94D215F7CF34E0660F771F9D
:102F60003A95E1F74111616021116460FC0126810D
:102F70003781121613060CF46860FC01848191E01D
:102F800090930C0580932E0510920D0510922F053D
:102F900080ED95E00E947E1781E00C94381690E059
:102FA00080E008950F931F93CF93DF93863420F52D
:102FB0008B01C82FD0E0FE01E35DF94F9081933083
:102FC00001F19430C9F482508033B0F4E091F30AF7
:102FD000F091F40ACE010197880F991FE80FF91FAD
:102FE00080819181009711F00E94F113CC0FDD1FB9
:102FF000CD58D94F19830883DF91CF911F910F913D
:1030000008959EEF980F9C3020F094ED980F933028
:1030100098F7B8010E945B06E9CFF9016F36E9F431
:103020004230F8F0618170E0423091F0828120E816
:10303000829FC0011124682B792B433049F0838192
:1030400090E090E4899F902D88271124682B792B9C
:1030500080810E94D21781E00895693611F40C94A2
:10306000DC0880E00895FC01E65BFF4F208122230D
:1030700031F01082855B9F4F2FEFFC012083089574
:103080006451623030F486E00E94BF0281E00C940B
:10309000BF0208959C018CEE860F8230B0F446305A
:1030A0005105A9F0D901A65BBF4F8C91882371F01F
:1030B000E62FF0E0E35DF94F8081863031F41C9219
:1030C000255B3F4F8FEFF901808380E0089581E019
:1030D00008956250603330F484E00E94BF028EE0B5
:1030E0000C94BF020895FC0101900020E9F731978C
:1030F000BF01681B790BAC0181E70C94D4049A01E1
:10310000A091DC05B091DD05ED91FC911197048053
:10311000F581E02D462F682FCD011995811104C04E
:103120008BE193E00C9473180895CF93DF93EB0138
:10313000A091DC05B091DD05ED91FC911197028025
:10314000F381E02DAB01682FCD011995811109C0E4
:10315000CF37D10531F083E393E0DF91CF910C9429
:103160007318DF91CF9108956115710579F0FB0116
:1031700001900020E9F73197AF01461B570BDC01A6
:10318000ED91FC910280F381E02D199490E080E0B4
:1031900008958F929F92AF92BF92CF92DF92EF925B
:1031A000FF920F931F93CF93DF93182F062FC42FF7
:1031B000D22F822E912CB12CA12CC501B40122E07A
:1031C00095958795779567952A95D1F76F707727AD
:1031D000882799276B507109810991090E946738E6
:1031E0006B017C01602F70E090E080E037E0660FBB
:1031F000771F881F991F3A95D1F7612B0C2F10E08C
:1032000030E020E04EE0000F111F221F331F4A95CF
:10321000D1F7602B712B822B932B55E1880C991CD5
:10322000AA1CBB1C5A95D1F78824992420E6A22217
:10323000BB24682979298A299B290E9467384B0178
:103240005C01D6FF04C0B7FAB094B7F8B094A701F8
:10325000960160E070E080E291E40E94443BA501A9
:1032600094010E94C638DF91CF911F910F91FF907A
:10327000EF90DF90CF90BF90AF909F908F90089588
:10328000FF920F931F93CF93DF93EC018B01F42EEA
:1032900021E00E94AD1720E04F2DB801CE010E9421
:1032A000AD178FE890E00197F1F7DF91CF911F9173
:1032B0000F91FF900895FF920F931F93CF93DF9389
:1032C0008C01EB01F42E84E0759567958A95E1F702
:1032D0006F707727C8010E944019BE016F70772771
:1032E0004F2DC801DF91CF911F910F91FF900C944A
:1032F000401970E041E00E945B1981E090E0089580
:1033000040E061E070E00E945B198BEF98E101976B
:10331000F1F708959A015AEC560F5031C8F4223053
:10332000310531F4862F60E00E941F0681E0089588
:1033300021E030E002C0220F331F5A95E2F72095BA
:103340003095FC0144815581242335233583248322
:1033500080E008954F925F926F927F92BF92CF92DA
:10336000DF92EF92FF920F931F93CF93DF937C0135
:10337000B62E6A01D22F4F3F540709F492C081E064
:1033800080930C0560932E0510920D0510922F0569
:10339000642F80ED95E00E947E17802F0E943816E2
:1033A000F701E45BFF4F808191818230910538F015
:1033B000880F991F880F991F05970197F1F70E94B1
:1033C0004F072B013C018091060581116CC0CD2F68
:1033D000D13208F0C0E281E08093060580930505B4
:1033E0009FEF90930405109203059C0F90930205A4
:1033F0008093E1049091E1048B2D880F892B8093B9
:10340000E1048091E004813009F0A0C01092E00452
:103410000E944F072B013C018091E1048093BB0087
:103420008091080590910905A0910A05B0910B05BE
:10343000892B8A2B8B2BA1F00E944F070091080546
:103440001091090520910A0530910B056419750941
:1034500086099709061717072807390708F444C093
:103460008091BC0083FDD8CF85EC8093BC000E9486
:103470004F072B013C0180910605813009F468C09B
:10348000809103058C1710F4C0910305A2EEB4E0FF
:10349000E8EDF3E080E08C1761F19D9191938F5FEF
:1034A000FACFC12C8CCF8091080590910905A0918D
:1034B0000A05B0910B05892B8A2B8B2B09F483CF3E
:1034C0000E944F07009108051091090520910A05F7
:1034D00030910B05641975098609970906171707B6
:1034E0002807390708F06FCF809107050E9417164B
:1034F000C0E01092D604C093D5040D2F10E08C2F9D
:1035000090E0081719070CF045C084E493E00E948E
:103510007318F701B2A6C3A63701FCE26F0E711C47
:10352000D12CC12CC016D106E4F59091D504809120
:10353000D6049817B1F180ED95E00E943717F3019A
:1035400081933F01FFEFCF1ADF0AECCF85EE8DCFDD
:103550008091080590910905A0910A05B0910B058D
:10356000892B8A2B8B2B09F486CF0E944F07009161
:1035700008051091090520910A0530910B05641981
:10358000750986099709061717072807390708F0EC
:1035900072CFAACF801791070CF0BBCF81E693E0E2
:1035A000B6CFA701465D5F4F62E06D0F87E7DF9101
:1035B000CF911F910F91FF90EF90DF90CF90BF9030
:1035C0007F906F905F904F900C94D404CF92DF92D5
:1035D000EF92FF920F931F93CF93DF93F42EE901A5
:1035E000663729F0683709F4F9C010E01CC0FC0107
:1035F000E65BFF4F1081112309F4F0C0298125FFFC
:1036000005C08DE793E00E9473180DC0688131E01A
:1036100026FB002700F903272871283009F43EC053
:1036200060F42223C9F0812FDF91CF911F910F9178
:10363000FF90EF90DF90CF900895203109F449C0BA
:10364000283189F7EC01C55BDF4F388113160CF484
:103650007FC08FEF8883E7CF30930C0560932E05F2
:1036600010920D0510922F0502E00F1578F4FE015F
:10367000E00FF11D61816795662767958081680F6E
:1036800080ED95E00E947E170E5FEFCF81E00E94F3
:10369000381683E191E00197F1F7C5CF3A812B818C
:1036A00046E0F4120FC070E8279FA0011124430FD9
:1036B000511D2D812795222727953C81230F0E949C
:1036C000AA19B1CF279522272795230F4FEF5FEF38
:1036D000F6CFFC01E55BFF4F408147301CF08DE9E0
:1036E00093E091CFAA813B81B6E0FB122AC050E85B
:1036F000359F90011124A20FB32FB11D3D81379545
:10370000332737952C81320F4F5F4083042E000CF6
:10371000550B25E0249FF001259FF00D1124E80FA3
:10372000F91F6283B483A3834F5F5F4F249FB0016F
:10373000259F700D1124860F971FDC013C93068393
:1037400072CF3795332737953A0FAFEFBFEFDCCF06
:1037500020E0E32E032E000CFF0875E0422F50E01E
:10376000E416F50664F0749FF001759FF00D1124C6
:10377000E80FF91F4281641719F02F5FEFCF20E0A7
:1037800045E0622F70E0E616F7062CF1283008F5C8
:10379000FB0131964E9FD0014F9FB00D1124A80F11
:1037A000B91F12965C911297469FF001479FF00D4A
:1037B00011246F01C80ED91EF601528313966D9124
:1037C0007C911497748363835285558316965C911C
:1037D00056832F5FD6CF3150388325CF2981B0E86B
:1037E0002B9FA00111242881240F352F311D211575
:1037F000310529F0FC01E45BFF4F318320838C010C
:10380000065B1F4FF8018081811131C0D0E0C0E01C
:103810008C2F8451823070F4FE01E35DF94F80817A
:103820008F3729F166E08C2F0E94CC0266E08C2F46
:103830000E941F062196C634D10551F781E0D801B8
:103840008C931092D6041092D50410920D0510920C
:103850002F050E94F91580EB9EE09093D20480938F
:10386000D10481EB9EE09093D4048093D304F801BB
:103870001081D9CE0F931F93CF93DF93EC018C016E
:103880000E5F1C4F8A819B81009721F00E94B23D00
:103890001B821A821C821D821E821F821886198634
:1038A0001A861B861C862B960C171D0759F7DF916D
:1038B000CF911F910F910895EF92FF920F931F9355
:1038C000CF93DF938C01EC0122967C0182E1E80E1C
:1038D000F11C89919991009731F00E94B23DFE014F
:1038E000329711821082CE15DF0599F7F801128AFE
:1038F000DF91CF911F910F91FF90EF900895EF927C
:10390000FF920F931F93CF93DF938C01EC012296CC
:103910007C0186E1E80EF11C89919991009731F0C4
:103920000E94B23DFE01329711821082CE15DF0552
:1039300099F7F80117A67801F0E2EF0EF11C8991D2
:103940009991009731F00E94B23DFE0132971182A9
:103950001082CE15DF0599F7F80110AADF91CF91FB
:103960001F910F91FF90EF900895CF93DF93C62F93
:10397000D0E0CC0FDD1FC80FD91FBA91AA911097C4
:10398000A1F0EC912E2F30E0F901EE0FFF1FE20FB6
:10399000F31FEF5BFB4F908196FF02C09F7B9083EC
:1039A000CD010E94B23D19821882DF91CF91089516
:1039B0000F931F93CF938C01C0E08EEF8C0F803359
:1039C00020F46C2FC8010E94B51CCF5FC634A9F744
:1039D000CF911F910F910895CF92DF92EF92FF92B6
:1039E0000F931F93CF93DF937A016901C62FD0E025
:1039F0008E01000F111F080F191FD8019E918E9183
:103A00008D010097E9F483E090E00E94163D20913B
:103A10003C042033D0F531E0320F30933C04FC01FC
:103A2000208330E0F901EE0FFF1FE20FF31FEF5B81
:103A3000FB4F28EB3BE032832183F80191838083A5
:103A4000DC01EC912E2F30E0F901EE0FFF1FE20FA9
:103A5000F31FEF5BFB4F208126FF02C02F7B2083EB
:103A6000F7FE06C020E639E040E252E0D7FC02C093
:103A70009601A701BE01DF91CF911F910F91FF9099
:103A8000EF90DF90CF900C946D142FEFDC012C930E
:103A9000D4CFCF92DF92EF92FF920F931F93CF93E9
:103AA000DF93EC01D9016037F1F5453008F452C0DD
:103AB0001C918EEF810F803308F04CC0E12FF0E0B5
:103AC000E35DF94F80818F3709F444C01296EC9082
:103AD000129720E8E29EC00111241196EC901197F4
:103AE000E80EF92EF11C1496CC90149740E8C49E71
:103AF000C00111241396CC90C80ED92ED11C64E0BD
:103B0000812F0E94CC029601A701612FCE010E9455
:103B1000EC1C81E0DF91CF911F910F91FF90EF900E
:103B2000DF90CF9008956430A9F48C9111961C9188
:103B30001197813089F412960C91802F0E94CC024B
:103B4000E12FF0E0F196EE0FFF1FEC0FFD1F10E0EC
:103B50001183008380E0DECF8230E1F7E12FF0E0D7
:103B6000F196EE0FFF1FEC0FFD1FE0818EEF8E0F21
:103B7000803380F7E150FF0BEE0FFF1FEC0FFD1FAE
:103B800080819181009731F313966C91139740E8EF
:103B9000649F9001112412966C91620F732F711D16
:103BA0000E94F113D7CF2EEF260F203368F4443054
:103BB000510541F42FEF3FEF4FEF5FEF0E94EC1CF8
:103BC00081E008950E94B51C80E008952F923F92F5
:103BD0004F925F926F927F928F929F92AF92BF921D
:103BE000CF92DF92EF92FF920F931F93CF93DF93C9
:103BF000CDB7DEB72F970FB6F894DEBF0FBECDBF9F
:103C0000633709F028C2423008F425C25901D42E86
:103C10007C01D9019C9011965C904BE0C42E252C20
:103C2000312C8C01C59C000D111D1124F8016280FE
:103C3000738061147104F1F4F1E49F1609F476C005
:103C400081E02F960FB6F894DEBF0FBECDBFDF9197
:103C5000CF911F910F91FF90EF90DF90CF90BF9089
:103C6000AF909F908F907F906F905F904F903F901C
:103C70002F90089521E4921609F458C034E4931665
:103C800019F080E498129DC0D3011B961C921B97DB
:103C90001D961C921D971C961C921C971A961C929E
:103CA0001A9719961C92199718961C92189717969E
:103CB0001C92179716961C92169715961C9215979C
:103CC00014961C92149713961C9280EF0E94BF02C8
:103CD00083E70E94BF02B4E482E49B1201C085E442
:103CE0000E94BF02852D0E94BF021092CF05109244
:103CF000CE057E01E9E0EE0EF11CF4E440E09F12F7
:103D000041E0BE016F5F7F4FC3010E94B20988236B
:103D100009F492C18E010F5F1F4FD8018D918D0163
:103D20000E941605E016F106C1F7E7CFB3E0DB12FB
:103D300092C1F101E35DF94F80818F3709F48BC1A6
:103D400067E0852D0E94CC02DD24D394F5018281A9
:103D5000811101C0D12C8BE0829D8001839D100DCB
:103D600011240E0D1F1DD80112968D919C91892B47
:103D700059F48EE090E00E94163D5C01652D0E9492
:103D8000340AF801B382A2822BE0229DF001239D28
:103D9000F00D1124EE0DFF1D14821582168217827C
:103DA0001086118612863FEF231A330A229DC00126
:103DB000239D900D1124E80EF91ED7011C92D48684
:103DC0003FCF90FE15C0C3010E947A09F80114820A
:103DD000158216821782108611861286C1010196FD
:103DE000C89EF001C99EF00D1124EE0DFF1D10823A
:103DF00091FE1FC040E06CECC3010E9446098BE0BD
:103E0000829DF001839DF00D1124EE0DFF1D1482A3
:103E100015821682178210861186128691012F5FF5
:103E20003F4F829FF001839FF00D1124EE0DFF1D87
:103E30001082892D8C7309F403CF2D2D2250330B62
:103E4000A90127E0249FC001259F900D1124FC01AA
:103E500033E0F595E7953A95E1F7FE87ED87850123
:103E60000E5F1F4F1A8709871C870B87D12CC12C27
:103E70002D853E852C153D0539F1C60123E0880FBF
:103E8000991F2A95E1F767E070E00E94F339F80185
:103E9000E60FF71F218147E050E0481B590B01C096
:103EA000220F4A95EAF7408150E002C055954795A8
:103EB0008A95E2F7242BEB85FC852193FC87EB8721
:103EC000FFEFCF1ADF0AD4CF92FE30C028E0C2162F
:103ED000D1040CF4B5CE40E065E5C3010E9446096B
:103EE0003AE0A30EB11CD8016D918D0140E0C301F1
:103EF0000E9446090A151B05B1F7BBE05B9E9001C5
:103F0000112490E080E0E985FA854191FA87E987FC
:103F1000FC01E20FF31FEE0DFF1D44830196883074
:103F2000910589F78501F8E0CF1AD10893FE4DC0BD
:103F300024E0C216D1040CF483CED801AD90BC901D
:103F4000119712964C9012971396BC91BF870C5FF5
:103F50001F4FE4E0CE1AD10894FE16C0F4E0CF164D
:103F6000D1040CF46DCED8016D917D918D919C9111
:103F7000E0911207F0911307309709F019950C5F43
:103F80001F4FB4E0CB1AD10895FE22C0C00ED11E3F
:103F90002BE0229DC001239D900D1124E80EF91EF7
:103FA0004701ECE08E0E911CF2E0EF0EF11CC01602
:103FB000D10671F0D8016D918D01F4014081D701D6
:103FC0008D919C910E944609F2CFB12CA12CC4CFB7
:103FD0001A141B040CF034CE80EF0E94BF0283E75A
:103FE0000E94BF0283E40E94BF02852D0E94BF028F
:103FF0001092CF051092CE05842D0E9416058F8554
:104000000E94160510E000E088E0C82ED12CF12CAB
:10401000EE24E394C3010E94F3088111FE28EE0C04
:10402000B1E0CB1AD108B1F78F2D0E9416050F5FB2
:104030001F4FA016B10641F78091CE059091CF0594
:104040001816190624F48091CD050E94BF0287EF4F
:104050000E94BF02F5CD80E0F4CDAF92BF92CF9227
:10406000DF92EF92FF921F93CF93DF932EEF260FF5
:10407000243408F044C04730510509F040C0162FE1
:10408000EC01E62EF12C6C018BE0689FC00CD11C7A
:104090001124F60182819381892B59F48EE090E0FE
:1040A0000E94163D5C01612F0E94340AF601B38222
:1040B000A2829BE09E9DF0019F9DF00D1124EC0FCC
:1040C000FD1F1482158216821782108611861286B1
:1040D0008FEFE81AF80A9E9D90019F9D300D1124E4
:1040E000C20FD31F188281E08487DF91CF911F9187
:1040F000FF90EF90DF90CF90BF90AF90089580E059
:10410000F4CFAF92BF92DF92EF92FF920F931F9383
:10411000CF93DF93623009F0F1C0F901C181C8305B
:1041200008F0ECC08C01908191115DC0F280AF2D40
:10413000B0E0A35DB94F8C918F3709F4DFC0D38015
:10414000AD2DB0E0A35DB94F8C918F3709F4D6C087
:10415000E480EE2DF0E0E35DF94F80818F3709F4C4
:10416000CDC063E08F2D0E94CC0261E08D2D0E94B6
:10417000CC0261E08E2D0E94CC02D0E0CC0FDD1F7E
:104180005801AC0EBD1EF50182819381892B21F46B
:10419000F80182898F5F828B86E090E00E94163D55
:1041A000EC0119828FEF8A831882FB82DC82ED8218
:1041B00061E08F2D0E941F0661E08C810E941F0626
:1041C00061E08D810E941F06F501D383C283C1E0A7
:1041D0008C2FDF91CF911F910F91FF90EF90DF9087
:1041E000BF90AF900895913059F4D0E02196CC0F54
:1041F000DD1FC00FD11F888199810E94600AE7CF1F
:10420000923081F4D0E02196CC0FDD1FC00FD11F7A
:104210000990D881C02D70E060E08B810E945B0620
:104220001882D5CF933051F5D0E02196CC0FDD1F09
:10423000C00FD11F08811981F801C081CC2339F248
:1042400061E070E083810E945B0661E0F801848197
:104250000E94F10561E0F80185810E94F10564E6A4
:1042600070E080E090E00E94740770E060E0F80188
:1042700083810E945B06F8011082AACF953091F4E9
:10428000D0E02196CC0FDD1FC00FD11F888199810E
:104290002281211121E0FC012183C081CC2309F47A
:1042A00096CF14C09430A9F4D0E02196CC0FDD1F36
:1042B000C00FD11FE881F98181E09181911180E0E7
:1042C0008183C081CF01CC2309F481CF0E94600A91
:1042D0007FCF963009F07BCFD0E02196CC0FDD1F49
:1042E000C00FD11F88819981238130E8239FA001CD
:1042F00011242281242BFC012283CFCFC0E068CF80
:10430000EF92FF920F931F93CF93DF93EC017B010A
:104310008A0188819981009729F02A813B8124179D
:10432000350788F4B8016F5F7F4F0E943B3E0097CE
:1043300091F0998388831B830A832C813D81232BF1
:1043400011F4FC0110821D830C83B70188819981CF
:104350000E94253F0CC088819981009711F00E942E
:10436000B23D198218821D821C821B821A82CE01E4
:10437000DF91CF911F910F91FF90EF9008954F9291
:104380005F926F927F928F929F92AF92BF92CF92E5
:10439000DF92EF92FF92CF93DF93EC016A017B01F2
:1043A00020E030E0A901CB01B6010E94603887FF10
:1043B00004C0F7FAF094F7F8F0948C8C9D8CAE8CD6
:1043C000BF8CA7019601C501B4010E946038882303
:1043D00009F449C06CA97DA98EA99FA90E946738DC
:1043E0002B013C01A7019601C501B4010E94973A37
:1043F0009B01AC01C301B2010E94C6380E94093B77
:104400006CAB7DAB8EAB9FABA701960160E070E01B
:1044100080E090E40E94973A0E949A3B26E53EE0B5
:104420004DE25FE30E94C63820E034E244E759E4FD
:104430000E94C63868AF79AF8AAF9BAFCC8EDD8E55
:10444000EE8EFF8ECE01DF91CF91FF90EF90DF9047
:10445000CF90BF90AF909F908F907F906F905F9024
:104460004F900C94E20CDF91CF91FF90EF90DF9092
:10447000CF90BF90AF909F908F907F906F905F9004
:104480004F900895CF92EF920F93CF93DF93EC016B
:1044900081E592E0998388836B831C861D861E8646
:1044A0001F86188A198A1A8A1B8A1C8A1D8A1E8AE4
:1044B0001F8A80E090E0A0E8BFE3888F998FAA8FE1
:1044C000BB8F1C8E1D8E1E8E1F8E88A399A3AAA340
:1044D000BBA31CA21DA21EA21FA261E070E07DA7CB
:1044E0006CA73FEF3FA718A619A61AA61BA64C83D8
:1044F0002D830E83EF821CAA1DAA1EAA1FAA18AE26
:1045000019AE1AAE1BAE1CAE1DAE1EAE1FAEFE0126
:10451000E05CFF4F80839183A283B3831A82188665
:1045200019861A861B86CC2019F0CE010E94C10A7A
:1045300040E050E060E87FE3CE01DF91CF910F9142
:10454000EF90CF900C94BF21BF92CF92DF92EF9269
:10455000FF920F931F93CF93DF93CDB7DEB72C97C6
:104560000FB6F894DEBF0FBECDBFFC012589211127
:104570008BC0B42E6B018C0182819381E42EF12CCF
:10458000FC0120853185121613068CF422853385B3
:10459000E216F30664F4F7013896EE0FFF1FE80FFA
:1045A000F91F60817181606840E00E945B19188684
:1045B0001F821A8619861C861B8650E040E063EB3A
:1045C00073E0CE0107960E9480216F817885F80103
:1045D000828193810E94B4181A8219821C821B82E4
:1045E0001E821D82C114D10469F0F60101900020E1
:1045F000E9F73197AF014C195D09B601CE0101967B
:104600000E948021F801828193814D815E8120E1A9
:1046100030E0241B350B369527953327FC01408568
:104620005185241735079CF442855385E416F50619
:1046300074F4F7013896EE0FFF1FE80FF91F608141
:104640007181620F731F606840E00E945B1969818D
:104650007A81F801828193810E94B418B11008C058
:10466000D801149680E1F60101900D928A95E1F748
:1046700089819A81009711F00E94B23D8F819885BF
:10468000009711F00E94B23D2C960FB6F894DEBF51
:104690000FBECDBFDF91CF911F910F91FF90EF9093
:1046A000DF90CF90BF900895EF92FF920F931F93EA
:1046B000CF93DF93CDB7DEB761970FB6F894DEBF27
:1046C0000FBECDBFF82E1A821982FE0133968FE0FD
:1046D000DF011D928A95E9F70F2D10E0BFE0BF15AD
:1046E000B8F0E091DE05F091DF052481358181E0AD
:1046F00090E00F2C02C0880F991F0A94E2F7672BF5
:1047000009F043C0809590958223932395838483F9
:104710008CE793E09F938F93CE0101967C019F934A
:104720008F930E948A35E091DE05F091DF0540E02D
:10473000B701828193810E94A4220F5F1F4F1F93B4
:104740000F9382E793E09F938F93FF92EF920E94E3
:104750008A35E091DE05F091DF0541E0B701828105
:1047600093810E94A4220FB6F894DEBF0FBECDBF86
:1047700061960FB6F894DEBF0FBECDBFDF91CF912B
:104780001F910F91FF90EF900895822B932B9583AB
:1047900084838091FF068111BBCF8F2D0E94320749
:1047A000BC018F2D0E94FF04B3CFCF92DF92EF9216
:1047B000FF920F931F93CF93DF938C0188E190E0DA
:1047C0000E94163DEC011B821A8285E492E09983D7
:1047D000888387E290E09D838C831F821E8282E023
:1047E000E82EF12CFD86EC8694E0C92ED12CDF86D4
:1047F000CE86F801D383C28380E190E099878887D1
:10480000FB86EA86198A188A20E430E03B8B2A8BE3
:104810009D8B8C8B80E590E09F8B8E8B1092D604C5
:104820001092D50410920D0510922F050E94F915D3
:1048300080EB9EE09093D2048093D10481EB9EE0C4
:104840009093D4048093D30420E040E070E060E0D3
:10485000CE010E94AD178BE39DE00197F1F7DF8653
:10486000CE86FD86EC8640E063E070E0CE010E94DB
:1048700040198BE496E40197F1F740E063E070E0C3
:10488000CE010E9440192BE1E22E23E0F22EC70157
:104890000197F1F740E063E070E0CE010E9440191B
:1048A000C7010197F1F740E062E070E0CE010E949D
:1048B000401940E068E270E0CE010E945B196E850D
:1048C0007F85CB0184609F878E876C6040E0CE013E
:1048D0000E945B19CE010E9480196C857D85CB01F9
:1048E00082609D878C87666040E0CE010E945B19E4
:1048F000F801828193812FEF30E0FC01378326831A
:1049000020E041E070E060E00E94AD17F801828194
:1049100093810E94801940E06EEA73E0C8010E9412
:10492000A422F801158ADF91CF911F910F91FF907A
:10493000EF90DF90CF9008958F929F92AF92BF92A9
:10494000EF92FF920F931F93CF93DF93CDB7DEB714
:1049500061970FB6F894DEBF0FBECDBF7C01D901C1
:10496000BC9011961C9111971A821982CE01039660
:104970002FE0FC0111922A95E9F7623609F07FC019
:10498000F2E0BF1293C013968C901397912CB12C28
:10499000A12C87E0880C991CAA1CBB1C8A95D1F716
:1049A00014964C91149750E070E060E09EE0440F44
:1049B000551F661F771F9A95D1F7842A952AA62A34
:1049C000B72A12968C911297882A15964C911597B2
:1049D00050E070E060E025E1440F551F661F771F2F
:1049E0002A95D1F7842A952AA62AB72A16968C9159
:1049F00090E0B0E0A0E033E0B595A7959795879556
:104A00003A95D1F70197A105B10541F4B094A0946E
:104A100090948094811C911CA11CB11CF70182818F
:104A200093810E948019812F90E001969F938F932C
:104A30008EEE93E09F938F938E010F5F1F4F1F9316
:104A40000F930E948A3540E0B801C7010E94A4225A
:104A5000BF92AF929F928F9285EE93E09F938F9338
:104A60001F930F930E948A3541E0B801C7010E944D
:104A7000A4220FB6F894DEBF0FBECDBF17C06230C0
:104A800009F0A5C080E0433018F012968C9112977F
:104A900073E0B71609F482C07B15D0F081E0B81638
:104AA00009F445C092E0B91609F475C080E061963A
:104AB0000FB6F894DEBF0FBECDBFDF91CF911F912F
:104AC0000F91FF90EF90BF90AF909F908F900895BF
:104AD000E5E0BE1609F468C0BE1608F462C0F6E050
:104AE000BF12E4CF1396AC9120E8A29FD00111240D
:104AF000A82B24E630E00E940F3A2FEF30E040E090
:104B000050E00E9484395F934F933F932F9386EA3E
:104B100093E09F938F93CE0101969F938F930E9472
:104B20008A350FB6F894DEBF0FBECDBF0EC08BED39
:104B300093E09F938F93CE0101969F938F930E9452
:104B40008A350F900F900F900F90F701828193811B
:104B50000E94801941E0BE016F5F7F4F5B01C7017A
:104B60000E94A422812F90E001969F938F938CE95D
:104B700093E09F938F93BF92AF920E948A3540E05B
:104B8000B501C7010E94A4220F900F900F900F90C3
:104B90000F900F908BCF83ED93E0CBCF8BEC93E016
:104BA000C8CF81EC93E0C5CF1F928F9384EB93E045
:104BB0009F938F93CE0101969F938F930E948A3586
:104BC0000F900F900F900F900F900F90BECF64300A
:104BD000B9F572E0B7126ACFB12C433060F012968B
:104BE000BC901297433039F013968C91E0E88E9F79
:104BF000C0011124B82AF701828193810E94801993
:104C0000812F90E001969F938F9383E993E09F9388
:104C10008F938E010F5F1F4F1F930F930E948A3552
:104C200040E0B801C7010E94A4221F92BF9287E80A
:104C300093E09F938F931F930F930E948A3514CF15
:104C4000633009F033CFB11027C04150550B31E02C
:104C50003B0D832F880F90E084179507A4F4E1E0C3
:104C6000F0E0EC0FFD1FEB0DF11D5F018A0F9B1FA4
:104C7000FC0121812795222727958081820FF5014C
:104C80008083B32EE4CF412FBE016F5F7F4FC701FA
:104C90000E94A42281E00BCFF1E0BF1226C09E014A
:104CA0002F5F3F4F8901B41688F412968C911297AA
:104CB00087958827879511969C911197890FF901FF
:104CC00081939F01B394B3941296EDCFF701828143
:104CD00093810E948019B7016C5F7F4F41E0C7014B
:104CE0000E94A42240E0B801D2CFF2E0BF1206C079
:104CF000F701828193810E948019CCCFF3E0BF122B
:104D000004C081E0F701858BF4CFF4E0BF12C2CF7D
:104D1000F701158ABFCF2F923F924F925F926F9209
:104D20007F928F929F92AF92BF92CF92DF92EF923B
:104D3000FF920F931F93CF93DF93CDB7DEB72E97DC
:104D40000FB6F894DEBF0FBECDBF5C0149874901A5
:104D50002DB63EB63E862D86623609F180E02D8462
:104D60003E840FB6F8943EBE0FBE2DBE2E960FB6F3
:104D7000F894DEBF0FBECDBFDF91CF911F910F9191
:104D8000FF90EF90DF90CF90BF90AF909F908F906B
:104D90007F906F905F904F903F902F900895D90132
:104DA00011960C9111970A3010F081E0D8CFF901DB
:104DB000F081F983F11153C11496DC901497ED2D15
:104DC000F0E0E35DF94F80818F3741F21396FC905C
:104DD0001397EF2DF0E0E35DF94F80818F3709F4F1
:104DE000BDCF1296CC9068E08F2D0E94CC0268E077
:104DF0008D2D0E94CC02202E312C3E822D8231013D
:104E0000660C771C6A0C7B1CD30112968D919C91C9
:104E1000892B21F4F50187A58F5F87A72C2C312CD6
:104E2000C10114E0959587951A95E1F7182F177031
:104E300000E0E12CA5E04A2E512C133018F1D401EA
:104E400015960C91E02FF0E0E35DF94F80818F37EC
:104E500009F484CF68E0802F0E94CC02133009F45B
:104E600097C0F401E680EE2DF0E0E35DF94F80811C
:104E70008F3709F473CF68E08E2D0E94CC02B7E023
:104E80004B2E512CFC2DF170FB87C0FE10C0F4019D
:104E9000E40DF51D20812983E22FF0E0E35DF94F59
:104EA00080818F3709F45ACF3FEF431A530A1130EC
:104EB00009F073C084E490E00E94163D1C01CC24EC
:104EC000C394E5E0EE2E04E02D2D4F2D61E0C101ED
:104ED0000E944222D30113963C922E92129729846B
:104EE00024141504B0F0D3011296ED91FC91840CBA
:104EF000951CD4018C9184FB992790F9382F31703F
:104F000081FB222720F9113009F09EC020873187CC
:104F100096A72B842220C1F0D30112960D911C91EB
:104F20002980F80127A6222D2F3F71F061E0822D04
:104F30000E941F06D8019E966C919E9781E068277B
:104F40009F968C910E94F10540E050E060E070E493
:104F5000F301828193810E94340E40E050E060E8CA
:104F60007FE3D30112968D919C910E94340E40E014
:104F700054E264E779E4F301828193810E94BF21C6
:104F80002D803E80A20CB31CD50190961C920DCFB3
:104F9000E12CF6E04F2E512C75CF1230A1F484E4B1
:104FA00090E00E94163D1C01CC24C39475E0E72ECE
:104FB00004E02D2D4F2D62E0C1010E944222F30139
:104FC000338222828CCFC1019595879587701330EB
:104FD000F9F481110DC084E490E00E94163D1C019B
:104FE000CC24C39455E0E52E2D2D4F2D63E06FCFDB
:104FF000813009F074CF84E490E00E94163D1C01DA
:10500000CC24C39445E0E42E2D2D4F2D66E0D4CF63
:10501000143009F064CF81110AC084E490E00E944A
:10502000163D1C01C12C2D2D4F2D64E050CF813039
:1050300009F055CF84E490E00E94163D1C01C12C7C
:105040002D2D4F2D68E0B8CF3087218782FB222796
:1050500020F9228783FB882780F9838759CFB9817C
:10506000B23009F070C0F901438150E070E060E0B7
:10507000B7E0440F551F661F771FBA95D1F784819B
:1050800090E0B0E0A0E01EE0880F991FAA1FBB1FB0
:105090001A95D1F7842B952BA62BB72B2281AC0127
:1050A000BD01422B858190E0B0E0A0E025E1880FB2
:1050B000991FAA1FBB1F2A95D1F7482B592B6A2B82
:1050C0007B2B868190E0B0E0A0E033E0B595A7951A
:1050D000979587953A95D1F70197A105B10539F4D0
:1050E00070956095509541955F4F6F4F7F4F10E0E1
:1050F000F8013196EE0FFF1FEA0DFB1D0190F081C4
:10510000E02D309709F451CE84859585A685B78525
:10511000840F951FA61FB71F408951896289738923
:1051200084179507A607B70739F0808B918BA28B60
:10513000B38BCF010E94E20CA00EB11E81E0D5011D
:1051400090968C930CCEB981B13011F5802F90E000
:105150000196880F991FA80EB91ED501ED91FC91FB
:10516000309709F422CE1486158616861786108A83
:10517000118A128A138A14AA15AA16AA17AA14A2A7
:1051800015A216A217A2148A158A168A178A0DCE9E
:10519000B981B33009F062C010E0F8013196EE0F2A
:1051A000FF1FE80FF91F80819181009709F4FDCD61
:1051B000F901438150E070E060E0A7E0440F551F23
:1051C000661F771FAA95D1F7C480D12CF12CE12C52
:1051D000BEE0CC0CDD1CEE1CFF1CBA95D1F74C29AF
:1051E0005D296E297F292281422BC580D12CF12C8B
:1051F000E12C25E1CC0CDD1CEE1CFF1C2A95D1F71F
:105200004C295D296E297F29C680D12CF12CE12CF7
:1052100033E0F594E794D794C7943A95D1F7CA94BC
:10522000CD28CE28CF2839F47095609550954195BA
:105230005F4F6F4F7F4FDC015096CD90DD90ED902A
:10524000FC905397C416D506E606F70609F474CF0A
:10525000FC01408B518B628B738B6CCFB981B43066
:10526000F1F4802F90E00196880F991FA80EB91EC7
:10527000F50180819181009709F497CDDC01ED91D2
:10528000FC91D90112962C91211105C00190F08159
:10529000E02D19958ACD0280F381E02DFACFB981F6
:1052A000B53009F087C0202E312CF1013196EE0F78
:1052B000FF1FE80FF91F808091808114910409F489
:1052C00074CDF401448855886688778820E030E002
:1052D000A901C301B2010E946038882309F45BC0B0
:1052E000A3019201C301B2010E94C6386B017C0187
:1052F000D4015C966D917D918D919C915F979B01FE
:10530000AC010E942B3A9B01AC01C701B6010E947F
:10531000973A0E94093B6B017C01D4011C962D91A8
:105320003D914D915C911F9729833A834B835C8318
:1053300050962D913D914D915C9153972D833E83D5
:105340004F83588720E030E0A901C301B2010E94D9
:105350003F3B181654F5BFEFCB1ADB0AEB0AFB0AEA
:1053600029813A814B815C81C20ED31EE41EF51E59
:105370008D819E81AF81B8858C159D05AE05BF05D9
:1053800051F0D4015096CD92DD92ED92FC9253975C
:10539000C4010E94E20CF501E20DF31D10A241E0F0
:1053A000602FC5010E94371300CDC094D094E094C3
:1053B000F094D6CFB981B63071F4E02FF0E0319699
:1053C000EE0FFF1FE80FF91F80819181892B09F4EF
:1053D000ECCC40E0E5CFE981E83089F5D9011596BC
:1053E0002C91159714964C91149713966C911397D2
:1053F00012968C910E94C9186B017C01802F90E05D
:105400000196880F991FA80EB91EF5010081118120
:105410000115110509F4C9CC20E030E0A901C7014C
:10542000B6010E94603840E054E264E779E48823E2
:1054300011F0B701A601C8010E94BF21B6CCF981C5
:10544000F93001F5D90115962C91159714964C91C8
:10545000149713966C91139712968C910E94C91809
:10546000AB01BC01802F90E00196880F991FA80E18
:10547000B91EF50180819181009709F496CC0E94B4
:10548000340E93CCF981F03209F053C0E02EF12CA8
:105490008701000F111F0A0D1B1DD80156968D9113
:1054A0009C91892B71F4F50180A98F5F80AB85E118
:1054B00090E00E94163DDC0154961C92F801978BF7
:1054C000868BF2E08F0E911C42E0D501AE0DBF1D20
:1054D000BD016F5C7F4F2984421530F5D4018D9159
:1054E0004D01E82FF0E03196EE0FFF1FEA0DFB1D96
:1054F0002081318121153105A9F0FB0180818F5F69
:105500008083D8015696ED91FC9184898A3050F4BD
:1055100091E0980F948B90E0880F991FE80FF91F86
:10552000318320834F5FD7CFAE0CBF1CF50112A68D
:105530003CCCF981F13209F0A7C12DB63EB63C86CC
:105540002B86202F30E0FC01E20FF31F81E082A7C1
:1055500071A84DB65EB644E0749E401851081124FF
:105560000FB6F8945EBE0FBE4DBE8DB79EB70196C6
:105570009A8789878C01AC0162E070E0771609F4A4
:1055800056C0F401E60FF11DC180D12CF12CE12CA5
:10559000A7E0CC0CDD1CEE1CFF1CAA95D1F7828184
:1055A00090E0B0E0A0E0072E7EE0880F991FAA1FD0
:1055B000BB1F7A95D1F7702D8C299D29AE29BF2963
:1055C000F0801C012D012F2872016101838190E080
:1055D000B0E0A0E0072E75E1880F991FAA1FBB1F3E
:1055E0007A95D1F7702D8C299D29A429BF29C480D3
:1055F000D12CF12CE12CE3E0F594E794D794C794F7
:10560000EA95D1F7CA94CD28CE28CF2839F4B095A1
:10561000A095909581959F4FAF4FBF4FFA01819311
:105620009193A193B193AF017F5F6B5FA7CF255F8C
:105630003F4F220F331FA20EB31ED5012D903C9079
:10564000F10174886101812C412CB12CA12C912C89
:105650007814E1F1D8016D917D918D919D918D012D
:10566000F601E190F1906F01D7011C962D913D91CB
:105670004D915C911F97621B730B840B950B97FFE9
:1056800007C090958095709561957F4F8F4F9F4F84
:105690000E946738F701208D318D428D538D0E9415
:1056A000973A562E672E7C01242D3B2D4A2D592DDD
:1056B0000E943F3B181624F0542C6B2CEA2CF92C3A
:1056C0008394452CB62CAE2C9F2CC2CF20E030E02A
:1056D000A901642D7B2D8A2D992D0E943F3B181620
:1056E0000CF0CAC01982D10154968C915980581679
:1056F00008F0C2C0052D10E0F801EE0FFF1FEE0FFD
:10570000FF1F29853A85E20FF31FC080D180E28018
:10571000F380000F111F020D131DD8010D90BC91D5
:10572000A02DBE83AD831C968D919D910D90BC9153
:10573000A02DA7019601281B390B4A0B5B0BCA0150
:10574000B9010E946738242D3B2D4A2D592D0E9406
:10575000973A562E672E782E892EED81FE8180890C
:105760009189A289B389C816D906EA06FB0639F0E1
:10577000C08AD18AE28AF38ACF010E94E20CF80142
:1057800000811181D80154962D913D914D915C91EC
:105790005797652D762D872D982D0E946038882388
:1057A00009F440C0D80158962D913D914D915C91DE
:1057B0005B972D833E834F83588769017A01F7FAFF
:1057C000F094F7F8F094A7019601652D762D872DBA
:1057D000982D0E94603887FD10C02D813E814F8139
:1057E0005885652D762D872D982D0E943F3B1816E4
:1057F000ECF0C52CD62CE72CF82C20E030E0A901E9
:10580000C701B6010E946038811115C0F80114A2C9
:1058100015A216A217A2D8015496CD92DD92ED9250
:10582000FC925797B981BF5FB9835DCFCD80DE8091
:10583000EF80F884E2CFA701960160E074E284E78C
:1058400099E40E94973A9F770E94103BD801949662
:105850006D937D938D939C9397978824839420E0F8
:1058600030E0A901C701B6010E943F3B18160CF0B9
:10587000812CF8018282CFCF2B843C840FB6F89420
:105880003EBE0FBE2DBE91CA2981233209F08DCABA
:10589000802F90E0F501E80FF91F12A60B96880FF4
:1058A000991FA80EB91ED5018D919C91892B09F4E1
:1058B0007CCA802F0E94251378CA85ED8093BC0096
:1058C0008091080590910905A0910A05B0910B05FA
:1058D0000796A11DB11D23E0B695A79597958795CD
:1058E0002A95D1F72091BC0024FD03C01092060533
:1058F0000895409108055091090560910A0570913D
:105900000B05452B462B472B69F30097A105B105E5
:1059100041F025E32A95F1F700000197A109B109AB
:10592000E1CF809107050C9417161F920F920FB6C6
:105930000F9211242F933F938F939F93AF93BF9315
:105940008091D8049091D904A091DA04B091DB043D
:105950003091D70423E0230F2D3758F50196A11D70
:10596000B11D2093D7048093D8049093D904A093B9
:10597000DA04B093DB048091DC049091DD04A09103
:10598000DE04B091DF040196A11DB11D8093DC04FB
:105990009093DD04A093DE04B093DF04BF91AF9138
:1059A0009F918F913F912F910F900FBE0F901F905D
:1059B000189526E8230F0296A11DB11DD2CF1F9284
:1059C0000F920FB60F9211240BB60F922F933F93A5
:1059D0004F935F936F937F938F939F93AF93BF93F7
:1059E000EF93FF9380E395E00E941C08FF91EF91F5
:1059F000BF91AF919F918F917F916F915F914F91E7
:105A00003F912F910F900BBE0F900FBE0F901F90E4
:105A100018951F920F920FB60F9211240BB60F928A
:105A20002F938F939F93EF93FF93E0914005F09115
:105A300041058081E0914605F091470582FD1DC03A
:105A40009081809149058F5F8F7320914A0582175D
:105A500041F0E0914905F0E0E05DFA4F958F8093C9
:105A60004905FF91EF919F918F912F910F900BBE60
:105A70000F900FBE0F901F9018958081F2CF1F924C
:105A80000F920FB60F9211240BB60F922F933F93E4
:105A90004F935F936F937F938F939F93AF93BF9336
:105AA000EF93FF9348E251E064E271E090E080E020
:105AB0000E941815FF91EF91BF91AF919F918F9127
:105AC0007F916F915F914F913F912F910F900BBEFE
:105AD0000F900FBE0F901F9018951F920F920FB648
